:020000040800F2
:10000000580800204D0200089728000885240008A1
:100010009528000809100008873200080000000039
:100020000000000000000000000000005D2B000840
:100030000B10000800000000992800085F2B000842
:1000400067020008670200086702000867020008EC
:1000500067020008670200086702000867020008DC
:1000600067020008670200086702000867020008CC
:1000700067020008670200086702000867020008BC
:1000800067020008670200086702000867020008AC
:10009000670200086702000867020008670200089C
:1000A000670200086702000867020008670200088C
:1000B000670200080000000000000000670200085E
:1000C000670200086702000867020008670200086C
:1000D000670200086702000867020008670200085C
:1000E000670200086702000800000000000000002E
:1000F0000000000000000000000000000000000000
:10010000000000006702000800000000670200080D
:1001100000000000000000006702000867020008FD
:10012000670200086702000867020008670200080B
:10013000670200080000000000000000000000004E
:10014000670200086702000867020008000000005C
:1001500067020008670200086702000867020008DB
:10016000670200086702000867020008000000003C
:10017000670200086702000800000000000000009D
:1001800067020008670200086702000800F002F832
:1001900000F04CF80AA090E8000C82448344AAF1D5
:1001A0000107DA4501D100F041F8AFF2090EBAE8D3
:1001B0000F0013F0010F18BFFB1A43F0010318479B
:1001C000E832000008330000103A24BF78C878C134
:1001D000FAD8520724BF30C830C144BF04680C604D
:1001E000704700000023002400250026103A28BF95
:1001F00078C1FBD8520728BF30C148BF0B60704799
:10020000642900F0EF80782900F0288100207047F1
:100210001FB503F0FBF89DE8030000F0A7FC00F019
:1002200099FA1FBD10B500F0FEFA10BD00F061FB99
:100230001146FFF7EDFF03F073F800F065FC03B41F
:10024000FFF7F0FF03BC00F023FE000009488047E1
:1002500009480047FEE7FEE7FEE7FEE7FEE7FEE7A8
:10026000FEE7FEE7FEE7FEE704480549054A064BC0
:1002700070470000FD2B00088D0100085802002087
:1002800058080020580400205804002053EA020CAB
:1002900000F069802DE9F04B4FF00006002B1FBFE6
:1002A000B3FA83F503FA05F424FA05F65E4012BFAB
:1002B0001643B2FA82F502FA05F4C5F120051EBF15
:1002C00022FA05FC44EA0C04203556EA044C4FEAB5
:1002D000144418BF641C4FF000084FF0000990420E
:1002E00071EB030C39D3002919BFB1FA81F701FA78
:1002F00007F6B0FA80F700FA07F6C7F120071EBF2D
:1003000020FA07FC46EA0C062037B6FBF4FCA7EB04
:100310000507103F07F01F0BCBF120060CFA0BFB73
:100320002CFA06F644BFB3460026202FA4BF5E4633
:100330004FF0000B5BEA060C08BF4FF0010B19EB06
:100340000B09ABFB027C48EB0608C01B06FB02CC8A
:100350000BFB03CC71EB0C01C1E70B460246414697
:100360004846BDE8F08B13B54FF000004FF0000198
:10037000AFF30080BDE81C40704700000FB4044993
:1003800010B503AA029800F0B7F910BC5DF814FB91
:100390005001002070B5044685690068C10601D58A
:1003A000302600E02026C00707D070BDD4E9012127
:1003B00030469047206A401C20626D1EF6D570BD05
:1003C00070B5044685690078C00707D170BDD4E9CF
:1003D000012120209047206A401C20626D1EF6D526
:1003E00070BD00002DE9F041064600241068752913
:1003F000314616A510D0AFF30080002802DA404243
:1004000013A507E031688A0701D512A502E0490764
:1004100004D511A5012401E0AFF3008000210A22D8
:1004200006F1240709E0B0FBF2FCB0FBF2F302FB9B
:100430001C00303078541846491C0028F3D123465C
:100440002A463046BDE8F04100F0FDB8000000004B
:100450002D0000002B0000002000000070B50446B5
:100460000D4621461068AFF300802188090502D5AA
:100470000F4A7A4402E00E4A7A440E32002104F117
:10048000240305E000F00F060009965D5E54491C48
:100490000028F7D120780023000704D5702D02D062
:1004A00009B1022311322046BDE8704000F0CBB8FC
:1004B000EA2F00002DE9F05F894604464FF0000A5C
:1004C000DFF824B1FB44C0F820A02046E16888474B
:1004D00000287DD0252806D0D4E901219047206A44
:1004E000401C2062F1E700255F462046E16888470E
:1004F0002028064607DB312E05D2B81910F8200C4B
:1005000008B10543F1E7A80701D525F00405C4F8B3
:100510001CA00027C4F818A02A2E09D0304602F0EB
:10052000C3FE38B304EB8708303EC8F8186019E002
:1005300059F8041B204604EB87029161E168884763
:10054000012F064618D1E069002820DA25F02005A1
:100550001DE0D8F8180000EB800006EB40003038B2
:10056000C8F818002046E1688847064602F09CFE5D
:100570000028EED1012F0AD02E2E08D12046E168A6
:1005800088477F1C0646022F45F02005C4DBA06982
:10059000002803DA404245F00105A061E80701D0D8
:1005A00025F01005A6B1A6F14100192802D8203681
:1005B00045F400654A463146204625604D46FFF722
:1005C0001FFE60B1012807D0ED1D25F0070000E0F7
:1005D00007E000F1080978E705F1040975E73046FE
:1005E0007AE7206A00F002B8C02F000030BCBDE8F6
:1005F000C09F4FF0000200B513469446964620393E
:1006000022BFA0E80C50A0E80C50B1F12001BFF4CB
:10061000F7AF090728BFA0E80C5048BF0CC05DF831
:1006200004EB890028BF40F8042B08BF704748BF7F
:1006300020F8022B11F0804F18BF00F8012B7047F3
:100640007047704770472DE9F0470D46994692462E
:10065000044600F124080168880604D5E06921F009
:100660001001216000E00120A84201DD471B00E0ED
:100670000027A1697A1902EB0900081AA061207805
:10068000C00602D42046FFF785FE002608E0D4E924
:1006900001211AF806009047206A401C761C20624F
:1006A0004E45F4DB2078C0060AD52046FFF772FEDF
:1006B00006E0D4E9012130209047206A401C2062E6
:1006C000381EA7F10107F4DC07E0D4E9012118F88E
:1006D00005009047206A401C2062281EA5F10105F4
:1006E000F3DC2046FFF76CFE2078000602D50220DE
:1006F000BDE8F0870120FBE7074B70B50D467B4452
:1007000000F011F80446284600F020F810B14FF030
:10071000FF3070BD204670BD072C000001694A1CE7
:1007200002610878704700B58FB0CDE90131002132
:10073000059105497944CDE9031011466846FFF754
:10074000B9FE0FB000BD0000E5FFFFFF007B00F029
:100750008000704710B542485421FFF74AFF4148D6
:100760005421FFF746FF40485421FFF742FF3F491D
:100770003B483C4A3F4B08603D490A603A49196092
:10078000531C0365481C1065012008653B48344A2A
:1007900039A1784400F01CF920B9384878440A3867
:1007A00000F0BBF937482F4A35A1784400F010F922
:1007B00020B9344878440A3800F0AFF932482A4A60
:1007C0002FA1784400F004F920B92F4878440A3862
:1007D00000F0A3F940232248DC000021224600F06B
:1007E000D4F820B125487844543800F096F91D48D3
:1007F00022464023002100F0C8F820B12148784467
:10080000543800F08AF9184822461023002100F0DD
:10081000BCF8002806D01C487844BDE81040563883
:1008200000F07BB910BD104870B5006D20F00104D8
:100830000B4800F043F90B4800F040F90A4800F07B
:100840003DF909E0206D20F00105204600F036F961
:10085000204600F073F82C46002CF3D170BD000048
:10086000FC00002050010020A40100201000002006
:10087000140000201800002072000000032D00006A
:1008800077000000EF2C0000DB2C00000EB5CDE956
:10089000000100F0DDFA029069460120ABBE0EBDFA
:1008A00008B5694600900220ABBE08BD1FB58DE8B3
:1008B000070069460520ABBE04B010BD1FB58DE82A
:1008C0000F0069460620ABBEF6E708B56946009002
:1008D0000920ABBE08BD1CB5CDE9000169460A2060
:1008E000ABBE1CBD704708B5694600900C20ABBE7E
:1008F00008BD754600F018F9AE4605006946534636
:1009000020F00700854618B020B5FFF7ADFCBDE824
:1009100020404FF000064FF000074FF000084FF066
:10092000000B21F00701AC46ACE8C009ACE8C009F7
:10093000ACE8C009ACE8C0098D46704770B5044604
:10094000051F00F0F7F80068002C14BF446870BD64
:10095000002C18BFAC423CBF20466468F8D3016845
:100960000A18AA4218BF456003D12A6805461144F7
:10097000016028684119A1421CBF6C6070BD6168AC
:10098000696021680844286070BD70B5C468A50717
:1009900013D0650211D4B2F5807F09D0B2F5007F83
:1009A00006D0B2F5806F08D1012300F1240106E0E2
:1009B0005D1E6FF07F46B54201D3012070BD01611D
:1009C000C361416024F470611143C160002070BDB7
:1009D0002DE9F0410C4607461646104600F06EF829
:1009E0002078611C61280AD0722802D077283CD177
:1009F00002E00125002405E00225042402E0082489
:100A000048F2020511F8010B2B2806D0622809D004
:100A100011F8010C74280AD00BE045F0030544F0EE
:100A20000204EFE745F0040544F00104EAE744F06E
:100A3000100438462146FFF729FF411C15D000213C
:100A4000316171604FF40071F560F16170612007F0
:100A500004D530460222002100F0E6F8306D40F067
:100A6000010030653046BDE8F0810020FBE72DE94C
:100A7000F0410D460646104C206DC10704D04108D8
:100A800004D020F00104F7E722460EE0542000F0E5
:100A90009CF807000ED0206D47F001010843542157
:100AA00020653846FFF7A5FD3A4629463046BDE8A1
:100AB000F0418DE70020D6E7FC0000202DE9F0474B
:100AC00004464FF000094FF0FF37C568D4E90486AB
:100AD000A80707D0204600F057F93046FFF7E0FEA0
:100AE000002802DA3846BDE8F087280502D54046DE
:100AF000FFF724FF4C212046FFF77BFD206D20F0FF
:100B0000010020654846EEE710B50446AFF30080CB
:100B10002046BDE81040FFF792BB10B500F07EF90B
:100B2000BDE8104000F074B900487047F80100209B
:100B3000704700000048704700020020704770476F
:100B40007047704738B504460A4600206946AFF33F
:100B50000080002808BF38BD02460099204600F0FA
:100B6000A4F9012038BD012000F0F3B9F8B5AFF3C6
:100B70000080054600200C46102000BF0646A8193C
:100B8000A0420DD9324669460020AFF3008007002D
:100B900008BF00F0DEF90098A04218BF0546C4194E
:100BA000FFF7C8FF05600746F01D20F00700461953
:100BB000284600F073F9B44208BFF8BDA21B3146C5
:100BC0003868BDE8F84000F070B970B50646FFF728
:100BD000B1FF056806F10B0020F00704B4429CBF8A
:100BE000002070BD2B466A68BAB11068A04210D3CD
:100BF00004F1080188423CBF5068586007D351682F
:100C0000101941601168091B016058601460101DC3
:100C100070BD13465268002AE7D121462846FFF7E7
:100C200091FF0028DED170BD2DE9F0410446164643
:100C30000D464769007B80072ED03846FFF745FEFA
:100C400050BB3EB3012E02D0022E25D104E0204637
:100C500000F045F905441DE03846FFF744FEE16821
:100C6000002841F01001E16005DA204600F058F854
:100C70000120BDE8F081C9030BD56268E16A9142A9
:100C800000D81146A26911442269891A814200DD07
:100C900008460544002D01DA0220EAE7E16A6068AF
:100CA000E268814206D29103E06203D522F400316A
:100CB00041F01002A6690027AE4213DCE16A8142CE
:100CC00001D90B4600E0034603EB060C2369ACEBAD
:100CD000030CAC4506DD814201D98C4600E0844618
:100CE0009C4505D1A760276042F02000A5620DE079
:100CF000AD1BE669AE1B8142A66000D90846C01A4A
:100D0000281A20605819606022F02000034908402A
:100D1000E060002084F84870ABE70000BFCFD7FF49
:100D2000C16821F4001141F08001C160002181609F
:100D3000016070472DE9F047814614460E464FF09A
:100D4000FF383248D5685769054209D03846A1694D
:100D5000FFF7C1FD002811DB2C48C0430540E560CA
:100D60002B46324649463846FFF7A0FDA16920F0E0
:100D70000042B21A11440028A16103D02046FFF7B7
:100D8000CFFF4046BDE8F08770B504460569C06AEC
:100D90006168884200D80846E16821F42011E160CA
:100DA000C90312D5A84208D02246411B2846FFF7A6
:100DB000C1FF10B14FF0FF3070BD0020E562C4E903
:100DC0000150E06820F48030E060002070BD10B574
:100DD0000446C06820F02000E060A16AA069884253
:100DE0000DD02046FFF7D0FFE06820F4405040F0DF
:100DF0001000E060A06AA0612069E062606044F2D7
:100E00004001E0688843E06010BD0000100002006F
:100E1000002801D000F03CB87047000010B5014632
:100E200002A000F07DF8012010BD00005349475298
:100E3000545245443A2052656469726563743A209D
:100E400063616E2774206F70656E3A2000000000A9
:100E500010B5431C02E010F8011B71B18107FAD1F3
:100E60004FF0013202C88C1A8C4314EAC211F9D037
:100E7000C01A0A0603D0C01E10BDC01A10BD0A0455
:100E800001D0801E10BD0902FCD0401E10BD000024
:100E900001491820ABBEFEE72600020000210160D8
:100EA000C0E90110704710207047034640688C4627
:100EB000002818BF88423CBF03464068F8D3186832
:100EC0001844884207D00CF1030020F00700001DF1
:100ED000411A521A0146081D0A60FFF72FBD10B5CE
:100EE0000146C268900703D0900607D5886A0AE0D9
:100EF00000F03EF801210160881E10BD8B69486832
:100F000018440B69C01A91F848301BB191F8491088
:100F1000401A10BD1103FCD50028FADD401E10BD9B
:100F200070B505460C460A2000E06D1C00F018F86C
:100F300035B128780028F8D102E0641C00F010F8E0
:100F400014B120780028F8D1BDE870400A2000F0E4
:100F500007B810B500F010F8BDE81040FFF758BF13
:100F600008B569468DF800000320ABBE08BD00003F
:100F700000487047F801002010B5012805D0002175
:100F800003A0FFF7CDFF012010BD09A1F8E7000085
:100F900053494752544D454D3A204F7574206F6662
:100FA0002068656170206D656D6F727900000000CA
:100FB0003A2048656170206D656D6F727920636FAE
:100FC00072727570746564000EB501234FF6FF727E
:100FD000CDE9001302920246A321024800F0D6F99F
:100FE0000EBD00002C0000200EB501234FF6FF724D
:100FF000CDE9001302920246A221024800F07CFAD9
:101000000EBD00002C000020FEE7704772B6FEE720
:1010100070B5044600F004F90546601C02D004488F
:101020000078044400F0FCF8401BA042FAD370BDE5
:10103000000000202DE9F04FDFF8AC9100230325DC
:10104000A9F1040B85B04FF0010C0F2709F1040A38
:10105000ABF1040EBFE000BF0CFA03F6324075D0CE
:101060000C7904F00304012C01D0022C1BD18468FC
:1010700000945C0005FA04F80494009C24EA080437
:101080000094D1F80C80049C08FA04F8009C48EA0B
:101090000408C0F808804468B4430E79C6F300160B
:1010A0009E40264346600C79E443A4070AD0C468F6
:1010B0004FEA430805FA08F6B4438E6806FA08F6C4
:1010C0002643C6600C7904F00304022C10D1DC081E
:1010D00000EB84040294246A5E074FEAD66807FA9C
:1010E00008F6B4430E6906FA08F62643029C266207
:1010F00004684FEA430805FA08F6B4430E7906F08F
:10110000030606FA08F6264306604C6814F4403FCE
:1011100060D0364C266E46F001062666246E23F01B
:10112000030604F001040094314C34440294A46892
:101130009E074FEA167807FA08F6B443B0F1904FCD
:1011400005D02C4EB04204D1012612E042E0002628
:101150000FE0294EB04201D102260AE0274EB042EC
:1011600001D1032605E0264EB04201D1042600E05D
:10117000072606FA08F62643029CA660D9F8006006
:101180004C46D1F8048096435FEAC82800D5164340
:101190002660DAF800405646D1F8048094435FEAAE
:1011A000882800D514433460DBF800405E46D1F84F
:1011B000048094435FEA883800D514433460DEF835
:1011C00000407646D1F8048094435FEAC83800D5E1
:1011D000144334605B1C0A6832FA03F47FF43CAFBA
:1011E00005B000F00FB800000804014000100240F4
:1011F000000001400004004800080048000C0048BE
:101200000010004830BCBDE8C08F0069084000D025
:10121000012070470AB18161704781627047000008
:1012200001488068704700000000002090F84120CD
:10123000202A24D190F84020012A20D0012280F8D1
:101240004020242280F841200268136823F0010323
:1012500013600268136823F48053136002681368F4
:101260000B43136001680A6842F001020A60202102
:1012700080F84110002180F8401008467047022095
:10128000704790F84120202A22D190F84020012A6E
:101290001ED0012280F84020242280F841200268DC
:1012A000136823F0010313600268136823F470636A
:1012B00043EA0121116001680A6842F001020A60F4
:1012C000202180F84110002180F840100846704726
:1012D0000220704770B5040004D094F84100002546
:1012E00010B106E0012070BD84F84050204600F0A7
:1012F000B3F9242084F841002068016821F001013D
:1013000001606068216820F0706008612068816871
:1013100021F400418160E0680128A06807D040F412
:10132000044021688860E068022803D006E040F4A9
:101330000040F6E721684FF400604860206841688B
:10134000114A114341602068C16821F40041C16025
:10135000D4E904010843A16940EA01202168C8607A
:10136000D4E907010843216808602068016841F05A
:10137000010101606564202084F84100256384F840
:101380004250002070BD0000008000022DE9FF4F98
:1013900083B00446DDE9108790F84100DDF84890FD
:1013A0009A469346202874D15FEA080014D09FB172
:1013B00094F8400001286CD0012084F84000FFF729
:1013C0002FFF0646012200901923D103204601F089
:1013D00077F9002871D103E04FF4007060646CE08D
:1013E000222084F84100402084F8420000256564F2
:1013F000C4F8248067856563CDE9009653465A4654
:101400002046049901F0E0F810B184F8405054E00F
:10141000618D3548FF274FF080784FF0007AFF2923
:1014200004D927853A464346009005E0618D218521
:10143000009094F8282053462046049901F028F99A
:101440004B46002204212046009601F039F9A0BB4A
:101450002068406A616A0870606A401C6062208D82
:10146000401E81B22185608D401E6085608DD8B19F
:10147000D1B94B46002280212046009601F020F988
:10148000D8B9608DFF2805D927853A46434600958F
:1014900006E026E0608D2085009594F828205346CC
:1014A0002046049901F0F4F8608D0028C8D1324636
:1014B0004946204601F030F918B1012007B000F08C
:1014C00017B821682020C86121684A68074B1A4074
:1014D0004A6084F8410084F8425084F8405000206B
:1014E000ECE70220EAE700000024008000E800FEAC
:1014F00030BCBDE8C08F00002DE9FF4F83B004462B
:10150000DDE9108790F84100DDF848909A4693464F
:10151000202871D15FEA080014D09FB194F84000F0
:10152000012869D0012084F84000FFF779FE0646C3
:10153000012200901923D103204601F0C1F80028B0
:101540006ED103E04FF40070606469E0212084F8FC
:101550004100402084F8420000256564C4F82480DE
:1015600067856563CDE9009653465A46204604993F
:1015700001F05CF810B184F8405051E0608DFF2715
:101580004FF080784FF0007AFF2804D927853A463B
:101590004346009505E0608D2085009594F828204D
:1015A00053462046049901F073F8324649462046D6
:1015B00001F0D8F8A0BB606A216800788862606A90
:1015C000401C6062608D401E6085208D401E80B290
:1015D0002085618DD9B1D0B94B46002280212046AB
:1015E000009601F06DF8D8B9608DFF2805D92785E0
:1015F0003A464346009506E026E0608D208500953A
:1016000094F8282053462046049901F041F8608D53
:101610000028CAD132464946204601F07DF818B16B
:10162000012007B000F014B820682021C1612068B3
:101630004268064B1A40426084F8411084F84250D8
:1016400084F840500020ECE70220EAE700E800FEC2
:1016500030BCBDE8C08F000010B59EB00446142118
:1016600017A8FEF7C6FF5C216846FEF7C2FF1749C0
:101670002068884228D14020009000200C906846C5
:1016800000F0E8F808B1FFF7C1FC114CE06C40F045
:101690000200E064E06C17A900F002001C90C0207A
:1016A0001790122018900120199003201A900420FE
:1016B0001B900848FFF7BEFCA06D40F40010A06529
:1016C000A06D00F400101C901EB010BD005400402E
:1016D000001002400004004802488168027811446A
:1016E000816070470000002010B50024032000F046
:1016F00063F8002000F008F808B1012401E000F0D0
:1017000025F8204610BD000070B50E4E0546002499
:10171000307898B14FF47A71B1FBF0F00A4909685A
:10172000B1FBF0F000F0B0FD40B9102D06D2002260
:101730002946501E00F020F8756000E00124204684
:1017400070BD0000000000200C000020094808B512
:10175000016E41F001010166016E01F0010100918D
:10176000816D41F080518165806D00F08050009066
:1017700008BD000000100240F0B40E4B1B680C4680
:10178000C3F30223C3F10705042D00D90425191D55
:10179000072901D2002300E0DB1E012606FA05F12D
:1017A000491E214099409E40761E16403143F0BCB0
:1017B00001F06ABD0CED00E0064900F00702086880
:1017C0004FF6FF03184040EA0220034A1043086026
:1017D000704700000CED00E00000FA051649B0F576
:1017E000007F0868C0F3412009D0022805D00868AE
:1017F00020F4C06040F48060086000207047012839
:10180000FBD0086820F4C06040F4007008600B480A
:101810003222006850430A4AB0FBF2F0401C00E05C
:10182000401E4A69520501D50028F9D14869400592
:10183000E3D5032070470000007000400C0000203A
:1018400040420F000248006800F4C060704700008A
:10185000007000402DE9F84F044600270088A84D8D
:101860003E46000515D5606C60B1B0F5000F04D0A0
:10187000B0F5400F2BD001270AE0E86840F4803033
:10188000E86024E00021201D01F008F807001ED0C8
:101890003E46206880033AD5A86D4FF00008C0008E
:1018A00009D4A86D40F08050A865A86D4FF00108DC
:1018B00000F080500090DFF84CA2DAF8001041F4FC
:1018C0008071CAF80010FFF7ABFC814610E0D5F834
:1018D0008800616C20F440000843C5F88800D8E710
:1018E000FFF79EFCA0EB0900022801D9032705E0C1
:1018F000DAF80000C005F3D5002F7DD04FEA0706C7
:10190000B8F1000F03D0A86D20F08050A8652078B2
:10191000C00707D0D5F88800216A20F003000843EB
:10192000C5F888002078800707D5D5F88800616A57
:1019300020F00C000843C5F888002078400707D540
:10194000D5F88800A16A20F030000843C5F8880067
:101950002078800607D5D5F88800E16A20F4406039
:101960000843C5F888002088800507D5D5F8880089
:10197000E16B20F440200843C5F88800208840052A
:1019800007D5D5F88800216C20F440100843C5F82D
:1019900088002078400607D5D5F88800216B20F410
:1019A00040500843C5F888002078000607D5D5F8D0
:1019B0008800616B20F440400843C5F88800208807
:1019C000C00507D5D5F88800A16B20F44030084346
:1019D000C5F8880020684FF0006700034FF080686A
:1019E00050D5D5F88800A16C20F040600843C5F8B8
:1019F0008800A06CB84200E005E03BD1E86840F404
:101A00008010E8603EE0D5F8900010F4407014D0EB
:101A1000A16D814211D0D5F89000D5F8901020F436
:101A2000407041F48031C5F89010D5F8901021F441
:101A30008031C5F89010C5F89000C00711D0FFF7AD
:101A4000EFFB074641F2883907E000BFFFF7E8FBEC
:101A5000C11B494501D9032652E7D5F890008007FC
:101A6000F4D5D5F89000A16D20F440700843C5F876
:101A7000900045E7404505D10121201D00F00EFFF3
:101A800000B106462068400317D5D5F88800E16C00
:101A900020F040600843C5F88800E06CB84204D1EB
:101AA000E86840F48010E86007E0404505D1012176
:101AB000201D00F0F3FE00B106462088400411D539
:101AC000D5F88800216D20F040500843C5F8880003
:101AD000206DB0F1805F05D10221201D00F0DEFEF7
:101AE00000B106462088000406D555F8880F616DC0
:101AF00020F0804008432860304600F005B8000020
:101B0000001002400070004018BCBDE8E08F0000EB
:101B10002DE9F0470F46050058D0404E306800F0E0
:101B20000700B84209D2306820F00700384330601F
:101B3000306800F00700B84248D12878384CC00718
:101B40002CD06868032811D0022812D0216898B1DF
:101B5000490500293ADAA16821F003010143A16097
:101B6000FFF75EFB804641F2883910E02168890169
:101B7000EFE721688903ECE78907EAE7FFF750FB05
:101B8000A0EB0801494502D90320BDE8F087A06811
:101B9000696800F00C00B0EB810FEFD12878800766
:101BA00005D5A068A96820F0F0000843A06030685F
:101BB00000F00700B8420BD9306820F00700384326
:101BC0003060306800F00700B84201D00120DCE747
:101BD0002878400705D5A068E96820F4E06008434C
:101BE000A0602878000706D5A068296920F4605015
:101BF00040EAC100A06000F03FF8A168094AC1F3C3
:101C00000311515C01F01F01C840074908600748F3
:101C10000068BDE8F047FFF777BD000000200240F4
:101C200000100240183400080C00002004000020BE
:101C30000548064900688968054AC1F30221515CDC
:101C400001F01F01C84070470C0000200010024046
:101C5000583400080548064900688968054AC1F3F8
:101C6000C221515C01F01F01C84070470C000020E8
:101C7000001002405834000870B52549002318466A
:101C80008A68CC6812F00C0204F00306214C4FEA7B
:101C9000640509D00C2A05D0042A32D0082A00D1C4
:101CA000284670BD012E10D10B681B0704D4D1F853
:101CB0009430C3F3032302E00B68C3F30313164EFF
:101CC00056F82330DAB10C2AEBD1C86800F00300D3
:101CD000022818D0032818D01846CA68CB68C2F367
:101CE0000212C3F306234343521CB3FBF2F2C8684B
:101CF000C0F34160401C4000B2FBF0F070BD1846DC
:101D000070BD204670BD2046E7E72846E5E70000A5
:101D1000001002400024F400283400082DE9F843A4
:101D200004006FD0FE4DA86800F00C06E86800F0D3
:101D300003072078C00664D576B10C2E01D1012F9F
:101D40000AD0A069002828687AD040F001002860F5
:101D5000FFF766FA80465DE02868800702D5A06933
:101D60000028DED0216A2868000703D5286800F023
:101D7000F00004E0D5F89400F02202EA101081424D
:101D800016D9084600F020FE00283BD1286840F014
:101D9000080028602868216A20F0F00008432860C5
:101DA0006868E16920F47F4040EA0120686016E03D
:101DB000286840F0080028602868216A20F0F000B8
:101DC000084328606868E16920F47F4040EA012008
:101DD000686026B9206A00F0F7FD0028D5D1FFF72A
:101DE0004BFFA968CF4AC1F30311515C01F01F01F9
:101DF000C840CD490860CD480068FFF785FC002841
:101E00007ED12EE0CAE000BFFFF70AFAA0EB08007F
:101E1000022876D828688007F6D5286840F00800A0
:101E200028602868216A20F0F0000843286068686C
:101E3000E16920F47F4040EA0120686011E0FFE79B
:101E400020F001002860FFF7EBF9804606E000BFB4
:101E5000FFF7E6F9A0EB08000228DAD82868800727
:101E6000F6D42078C00740D0082E18D00C2E01D10F
:101E7000032F14D06068B0F5803F17D0B0F5A02FC5
:101E8000286817D020F480302860286820F480204B
:101E900028606068E0B1FFF7C3F9804614E0286865
:101EA000800322D56068002878D01EE0286840F4BE
:101EB0008030EDE740F480202860F7E7FFF7B0F9C5
:101EC000A0EB08006428A4D828688003F6D50CE0AD
:101ED000FFF7A6F9804605E0FFF7A2F9A0EB08009E
:101EE000642896D828688003F6D4207880073BD5EC
:101EF000042E11D00C2E01D1022F0DD0E06801E08C
:101F0000B6E1FFE0002828681ED040F48070286009
:101F1000FFF786F907460CE0286840050CD5E06815
:101F20000028C1D008E000BFFFF77AF9C01B0228E3
:101F300093D828684005F7D56868217C20F0F850D0
:101F400040EA016068600FE020F480702860FFF7CD
:101F500067F9074605E000BFFFF762F9C01B0228DA
:101F6000B1D828684005F7D42078000729D56069E2
:101F70000028D5F8940012D040F00100C5F8940074
:101F8000FFF74EF9074604E0FFF74AF9C01B0228A5
:101F900099D8D5F894008007F6D512E02BE120F00F
:101FA0000100C5F89400FFF73BF9074605E000BFC4
:101FB000FFF736F9C01B022885D8D5F894008007B2
:101FC000F6D42078400766D5A86D0027C00008D455
:101FD000A86D40F08050A865A86D012700F08050E2
:101FE000009053480168C90512D40168814641F444
:101FF00080710160FFF714F9804605E0FFF710F9E2
:10200000A0EB080002287DD8D9F80000C005F5D55E
:10201000A068012816D00528D5F8900017D020F028
:102020000100C5F89000D5F8900020F0040000BF32
:10203000C5F89000A06841F28839C0B1FFF7F0F808
:1020400080460FE0D5F8900040F00100F0E740F046
:102050000400C5F89000F5E7FFF7E2F8A0EB0801EF
:1020600049454FD8D5F890008007F5D50EE0FFF729
:10207000D7F8804606E000BFFFF7D2F8A0EB0801D2
:1020800049453FD8D5F890008007F5D41FB1A86D19
:1020900020F08050A8652078800628D5606A002846
:1020A000D5F8980012D040F00100C5F89800FFF76D
:1020B000B7F8074605E000BFFFF7B2F8C01B0228DB
:1020C00020D8D5F898008007F6D510E020F0010060
:1020D000C5F89800FFF7A4F8074604E0FFF7A0F85A
:1020E000C01B02280ED8D5F898008007F6D4A06A45
:1020F000A8B1022824D00C2E7DD0286820F0807052
:10210000286000E0B3E02868000103D4E86820F00C
:102110000300E860E86807490840E8600CE09FE0D9
:1021200000100240183400080C00002004000020B9
:1021300000700040FFFFEEFEFFF772F8044699E0E2
:10214000E868E26A00F00301914226D1216B00F0B9
:1021500070020901103991421FD1626B00F4FE41F7
:10216000B1EB022F19D194F8382000F07841B1EB8F
:10217000C26F12D1A18F00F4C00249084905A1F530
:102180000011914209D194F8401000F0C060490854
:102190004906A1F1007181424BD00C2E6FD0286806
:1021A00040016CD4286820F080702860FFF738F870
:1021B000064604E0FFF734F8801B022857D8286849
:1021C0008001F7D4F4E90B016FF00F0202EB01116B
:1021D0000843218A5204490802EB4151A26841EAAE
:1021E00002210843217D4FF07E42490802EB416104
:1021F0000843217B00E042E040EAC160E968214AEF
:1022000011400843E860286840F080702860E86862
:1022100040F08070E860FFF703F8044605E000BF77
:10222000FEF7FEFF001B022821D828688001F7D5A1
:1022300023E02868800120D4286840F0807028605E
:10224000E86840F08070E860FEF7EAFF044604E0CA
:10225000FEF7E6FF001B022809D828688001F7D5A1
:102260000BE000BFFEF7DCFF001B022802D90320B1
:10227000BDE8F88328688001F4D40020F8E7012045
:10228000F6E700008C809D0110B5401EB0F1807F04
:1022900001D3012010BD4FF0E02460610F216017D1
:1022A00000F0F2FF0020A06107202061002010BD97
:1022B000704710B5040002D0A06F10B107E00120F4
:1022C00010BD002084F87400204600F025F824207A
:1022D000A0672068016821F001010160204600F03C
:1022E000C5FD0128ECD0606A10B1204600F08EFCDC
:1022F0002068416821F4904141602068816821F0A4
:102300002A0181602068016841F0010101602046D6
:10231000BDE8104000F0DEBC30B59DB0044614218D
:1023200017A8FEF766F95C216846FEF762F91649C0
:102330002068884226D10224002568460995009429
:10234000FFF788FA08B1FEF761FE1048816D41F48D
:1023500000318165816D01F400311C91C16C41F047
:102360000101C164C06C17A900F001001C900C2091
:1023700081E8310003201A9007201B904FF0904015
:10238000FEF758FE1DB030BD004400400010024072
:1023900030B4C36F202B20D1E1B1DAB190F87430A2
:1023A000012B1AD0012380F87430002303660C4CF3
:1023B0000368A3420BD05B681B0208D5046854E88D
:1023C000003F43F0806344E80035002DF6D130BC77
:1023D00000F04CBE012030BC70470220FBE700003B
:1023E0000080004010B504460068084988420BD1BF
:1023F0000D220749204600F00DF82046BDE81040A8
:102400000D220349FFF7C4BF10BD00000044004087
:102410001C000020836F202B2DD1B9B1B2B190F8F0
:102420007430012B27D0012380F87430C164A0F8E8
:102430005020A0F8522000218166C0F8801021228F
:1024400082678268B2F5805F02D003E001207047A6
:10245000026972B1094A826680F87410026852E813
:10246000001F41F0800142E80013002BF6D100204C
:102470007047034AEFE702207047000075310008FB
:1024800025310008FEE701688A69D243920701D42A
:1024900000228A6200688169C943C90703D0816943
:1024A00041F00101816170472DE9F0470446006861
:1024B0008A461746816900252E46C906A9464FF06F
:1024C000200849D51021C16137E000BFBAF1FF3FB4
:1024D00033D0FEF7A5FEC11B514502D8BAF1000F5B
:1024E0002BD12068416894F8422001F4804183692F
:1024F000DB431B041CD4B1F5804F19D0202A17D020
:10250000416841F480414160FEF78AFE07460FE0D2
:10251000FEF786FEC01B19280AD9606C40F0200027
:10252000606484F8418084F8429084F840900125EA
:1025300020688069C0438006EAD420688069C0436F
:10254000800602D5002DC1D003E015B92168C1F87D
:102550001C8046F00406012521688869C20505D55E
:102560004FF4807246F00106CA610125410509D584
:1025700022684FF4806146F00806D161012580058C
:1025800002D40AE0800507D521684FF4007046F0B8
:102590000206C861012500E08DB12046FFF773FFF8
:1025A00054F8240B4168074A11404160206A3043C7
:1025B000206284F81D8084F81E9084F81C902846C0
:1025C000BDE8F08700E800FE2DE9F8430446164612
:1025D000DDE9089714489846DAB2009000232046B7
:1025E00000F056F83A464946204600F0BBF8B8B924
:1025F000F5B2B8F1010F08D02168300A88623A4676
:102600004946204600F0AEF850B9206885624B4636
:10261000002240212046009700F052F8002800D008
:102620000120BDE8F8830000002000802DE9F84378
:102630000446164615489846DDE90897DAB2C30203
:102640000090204600F024F83A464946204600F023
:1026500089F8B8B9F5B2B8F1010F08D02168300A8D
:1026600088623A464946204600F07CF850B9206816
:1026700085624B46002280212046009700F020F81A
:10268000002800D00120BDE8F88300000020008071
:1026900010B5C1F3090141EA02410268029C1943E5
:1026A0002143506821F000414FF4806303EA545302
:1026B000024C234398430843506010BDFF63FF035F
:1026C0002DE9F0411D4617460E460446DDF81880F8
:1026D00008E0681C06D0FEF7A3FDA0EB0800A842A6
:1026E0000BD855B12068806936EA000012D000206E
:1026F000B842EED00020BDE8F08154F8440F40F01D
:10270000200044F80409202060700020A070207090
:102710000120F0E70120EBE770B516460D460446B0
:102720000DE0324629462046FFF7BEFE08B10120E3
:1027300070BDFEF775FD801BA84207D835B1206833
:102740008069C0438006ECD4002070BD54F8440F6B
:1027500040F0200044F80409202060700020A070A0
:102760002070E4E770B516460D4604460FE0324689
:1027700029462046FFF798FE08B1012070BD681C6D
:1027800005D0FEF74DFD801BA84207D835B1206863
:102790008069C0438007EAD4002070BD54F8440F1C
:1027A00040F0200044F80409202060700020A07050
:1027B0002070E2E7114808B5C16C41F00401C16422
:1027C000C16C01F004010091C16C41F08001C16451
:1027D000C16C01F080010091C16C41F00101C16444
:1027E000C16C01F001010091C16C41F00201C164B2
:1027F000C06C00F00200009008BD00000010024014
:10280000134810B5114901601249416000210122AD
:10281000C0E90212016141618161C1610162FEF79B
:1028200059FD08B1FEF7F2FB00210948FEF7FEFC56
:1028300008B1FEF7EBFB00210548FEF722FD00285A
:1028400003D0BDE81040FEF7E1BB10BD00540040CE
:102850002C000020EC9C90100D4810B50B49016035
:102860004FF4E1314160002181600C22C160C0E978
:1028700004128161C16101624162FFF71AFD002803
:1028800003D0BDE81040FEF7C1BB10BD00440040BE
:1028900078000020FEE7FEE7704700002DE9F041D8
:1028A000444C05468846E0680026810728680DD01C
:1028B000E16801F00301814216D1A8B1E0686968BE
:1028C000C0F30210401C88420ED120E0012804D041
:1028D000022805D0032807D108E02168890701E014
:1028E00021684905002907DB01265FE0216889038B
:1028F00002D421684903F5E7E1686A686FF00F03C5
:1029000021F0730103EB021211430143E1602068DF
:1029100020F080602060FEF783FC074605E000BFE2
:10292000FEF77EFCC01B022837D820680001F7D4D0
:10293000B8F1000F18D0B8F1010F1DD0287D4FF06D
:102940007E41400801EB4060A96840EA012021690E
:10295000194A114008432061206840F080602060DF
:10296000FEF75EFC07461AE0A868297B000240EAF1
:10297000C1602169114AECE7288A1149400801EB3E
:102980004050A96840EA012021690E4AE1E700BFF2
:10299000FEF746FCC01B022801D9032606E020688A
:1029A0000001F5D52069A969084320613046BDE8DA
:1029B000F081000000100240FF80FFF9FF80FF0758
:1029C0000000E0FFFF809FFFF8B51C4D0646002485
:1029D000A86DC00002D5FEF735FF0DE0A86D40F0F0
:1029E0008050A865A86D00F080500090FEF72AFF87
:1029F000A96D21F08051A965B0F5007F04D0802E2B
:102A000007D94FF003040AE0802E08D9A02E01D880
:102A100004E001D1022402E0702E00D10124084814
:102A2000016821F0070121430160006800F0070000
:102A3000A04201D00120F8BD0020F8BD00100240E6
:102A4000002002402DE9F041064600254FF4805851
:102A50004FF09047300601D5012200E000224146A8
:102A60003846FEF7D7FB7006060E012000F024FC66
:102A7000012202213846FEF7CDFB6006040E4021FC
:102A80003846FEF7C2FB08B1641CE4B2012000F036
:102A900013FC002202213846FEF7BCFB00BF6D1C70
:102AA000EDB2082DD6D32046BDE8F08170B52A4896
:102AB00086B0C16C41F00101C164C16C01F001013B
:102AC0000591C16C41F00101C164C16C01F00101CB
:102AD0000591C16C41F00101C164C16C01F00101BB
:102AE0000591C16C41F00101C164C06C012400F08A
:102AF000010005900220CDE9000403204FF090462C
:102B0000039069463046FEF795FA012202213046CD
:102B1000FEF780FB4020009000200190694630467F
:102B2000FEF788FA2503CDE9005469463046FEF7E2
:102B300081FA012229463046FEF76CFB1020CDE9D0
:102B4000000469463046FEF775FA0122102130462E
:102B5000FEF760FB06B070BD001002407047FEF744
:102B6000BBBD30B5ADB044216846FDF742FD142130
:102B700028A8FDF73EFD5C2111A8FDF73AFD4FF4B2
:102B800000752846FEF72AFE08B172B6FEE701205E
:102B90000104CDE90001022103240A91CDE90B4093
:102BA00014200D900720CDE90E0168461091FFF723
:102BB000B5F808B172B6FEE70F20CDE9280400246D
:102BC0002A942B94042128A82C94FEF7A1FF08B185
:102BD00072B6FEE7422011901A941D9411A8FEF7D8
:102BE00039FE08B172B6FEE72846FEF7F7FD002869
:102BF00001D072B6FEE72DB030BD0000024801687A
:102C000041F470010160704788ED00E090F82410F5
:102C1000C90706D001684A68836A22F400321A4361
:102C20004A6090F82410890706D501684A68C36A8B
:102C300022F480321A434A6090F82410490706D5DE
:102C400001684A68036B22F480221A434A6090F8B4
:102C50002410090706D501684A68436B22F4004234
:102C60001A434A6090F82410C90606D501688A689C
:102C7000836B22F480521A438A6090F824108906EC
:102C800006D501688A68C36B22F400521A438A6031
:102C900090F82410490611D501684A68036C22F4A3
:102CA00080121A434A60016CB1F5801F06D1016899
:102CB0004A68436C22F4C0021A434A6090F8241018
:102CC000090606D501684A68806C22F40022024396
:102CD0004A607047F8B500260446C0F88060FEF7E9
:102CE0009FFA0546206800686FF07E47000708D508
:102CF0002B4600224FF400112046009700F060FAA6
:102D000060B92068006840070AD52B4600224FF4BE
:102D100080012046009700F053FA08B10320F8BD67
:102D20002020A067E067266684F874600020F8BD64
:102D300010B5B0F85C20C36F0168222B04D0088B5B
:102D400040F00800088310BD898C436D1140198044
:102D5000416D891C4165B0F85A10491EA0F85A10FF
:102D6000B0F85A100029EED1026852E8001F21F491
:102D7000907142E80013002BF6D10168083151E848
:102D8000002F22F0010241E80023002BF5D1202181
:102D9000C16700214166026E012A02D0FFF722FBC3
:102DA00010BD0166026852E8001F21F0100142E8E0
:102DB0000013002BF6D10168CA69D243D20601D4B0
:102DC00010220A62B0F85810FFF772FA10BD10B561
:102DD000B0F85C20C36F0168222B04D0088B40F050
:102DE0000800088310BD898C1140426D1170416D3F
:102DF000491C4165B0F85A10491EA0F85A10B0F8A5
:102E00005A100029EED1026852E8001F21F4907197
:102E100042E80013002BF6D10168083151E8002F79
:102E200022F0010241E80023002BF5D12021C167E7
:102E300000214166026E012A02D0FFF7D3FA10BDCD
:102E40000166026852E8001F21F0100142E80013F9
:102E5000002BF6D10168CA69D243D20601D41022F0
:102E60000A62B0F85810FFF723FA10BD2DE9F041BF
:102E70000446016880682269E3691043626900259D
:102E80001A431043714F0A68714B1A4002430A609B
:102E900020684168E26821F4405111434160216893
:102EA000A069B94201D0226A10438A6822F43062D4
:102EB00002438A606749236867488B420DD1D0F886
:102EC000880010F0030006D0012847D0022843D024
:102ED000032830D144E001212EE060498B420BD120
:102EE000D0F8880010F00C0034D0042836D0082820
:102EF00032D00C281FD133E059498B420BD1D0F886
:102F0000880010F0300025D0102827D0202823D0AA
:102F1000302810D124E0BB420DD1D0F8880010F445
:102F2000406017D0B0F5806F18D0B0F5006F13D0A7
:102F3000B0F5406F14D010214A4A00264FF40040EB
:102F4000BB422FD171B102290FD004290FD008291B
:102F500073D10FE00021EFE70221EDE70421EBE759
:102F60000821E9E7FEF764FE03E0104602E0FEF701
:102F700083FEE8B3626802EB420181425DD8B0EBA8
:102F8000023F5AD8010E030250081818714100235D
:102F9000FDF77CF9344AA0F5407191424DD8216883
:102FA000C8604BE0E3694FF6EF77834228D10929E7
:102FB00043D2DFE801F005080B420D424242100007
:102FC000FEF736FE06E0FEF745FE03E0104602E09F
:102FD000FEF752FE60B14100606801EB5001B1FBA9
:102FE000F0F0A0F11001B94227D84FF6F07100E0DF
:102FF00024E00140C0F3420001432068C1601DE0AD
:1030000009291AD2DFE801F005080B190D19191961
:103010001000FEF70DFE06E0FEF71CFE03E0104672
:1030200002E0FEF729FE48B1616800EB5100B0FBF9
:10303000F1F0A0F11001B94205D9012566662846D4
:10304000A666BDE8F08180B2A9E7000000800040DC
:10305000F369FFEF003801400010024000440040D7
:10306000004800400024F400FFFC0F0030B541652B
:10307000A0F85820A0F85A200022426681684FF438
:103080008055FF23A94204D1016971BB40F2FF11B1
:1030900031E07F2439B3B1F1805F29D0A0F85C2002
:1030A000C0F880202221C1670168083151E8003F43
:1030B00043F0010341E80034002CF5D18168A942B6
:1030C00001D10169E9B11549416680F874200169AF
:1030D000C9B1026852E8001F41F4907142E8001340
:1030E000002BF6D118E0016941B9A0F85C30D7E7B0
:1030F000016919B13F21A0F85C10D1E7A0F85C404C
:10310000CEE70749E0E7026852E8001F41F02001DE
:1031100042E80013002BF6D1002030BDCF2D00086F
:10312000312D0008816F212910D1B0F8521071B1F2
:10313000C16C02680988C1F308011185C16C891C42
:10314000C164B0F85210491EA0F8521070470268CE
:1031500052E8001F21F0800142E80013002BF6D155
:10316000026852E8001F41F0400142E80013002BC2
:10317000F6D17047816F21290ED1B0F8521061B19C
:10318000C16C026809781185C16C491CC164B0F832
:103190005210491EA0F852107047016851E8002FE4
:1031A00022F0800241E80023002BF6D1026852E8A9
:1031B000001F41F0400142E80013002BF6D1704798
:1031C0002DE9F0479A4617460E4604464FF000098F
:1031D0004FF02008089D4AE0681C48D0FEF720F810
:1031E000A0EB0A00A8422AD84DB32068016849071D
:1031F0003DD5C069C043000539D421684FF4006053
:103200000862206850E8001F21F4D07140E80012E5
:10321000002AF6D12068083050E8001F21F0010193
:1032200040E80012002AF5D1C4F87880C4F87C8008
:10323000C4F8808084F874900320BDE8F08721688A
:1032400051E8000F20F4D07041E80002002AF6D1C6
:103250002068083050E8001F21F0010140E800120A
:10326000002AF5D1C4F87880C4F87C80E2E72068B1
:10327000C06936EA000004D00020B842ACD000207B
:10328000DBE70120F9E7FEE70907090E002804DB68
:1032900000F1E02080F80014704700F00F0000F10A
:1032A000E02080F8141D704730380A2801D2012030
:1032B000704700207047000071B54FF461754FF002
:1032C000E023104E009819E02C46A04200D8044696
:1032D0009869614201EB810110EB011105D49A69F3
:1032E000824208DA8A42FADA05E08A19996981424B
:1032F000FCDD9142FADC0098001B00900028E3D12D
:1033000078BD00008038010004490A685206FCD5E7
:10331000024AC1B20C321180704700001C440040C8
:103320001CB5A5208DF8040000208DF80000FEF7E4
:10333000DBF9FFF7BBFBFFF714FCFFF73BFAFFF7E6
:103340005FFAFFF789FA0D229DF800101548FFF784
:103350001FF815A0FDF712F801A90A20FDF744FE99
:10336000B8B113A0FDF70AF83220FDF751FE694607
:103370000A20FDF729FE70B111A0FCF7FFFF00BF86
:103380009DF80400FFF75EFB014610A0FCF7F6FF76
:10339000FEE713A0E6E79DF8001014A0FCF7EEFF8F
:1033A000EEE7000078000020307861350D0A00005B
:1033B0005772697465206661696C0D0A000000002F
:1033C00052656164206661696C0D0A0072656376FE
:1033D0007370695F627566203D202564200D0A00C8
:1033E0005772697465206F6B0D0A00005265616445
:1033F000206F6B2C20726563765F627566203D20BE
:103400003078253032580D0A000000004FF040702F
:10341000E1EE100A7047000000000000000000000C
:103420000102030406070809A0860100400D0300FD
:10343000801A060000350C0040420F0080841E00F8
:1034400000093D0000127A000024F40000366E01ED
:103450000048E801006CDC020000000001020304E7
:1034600030313233343536373839414243444546BA
:1034700040305800303132333435363738396162B4
:1034800063646566403078000400000800000000B6
:103490000000000200010000103A7474003A7474D5
:1034A000003A747400000000C834000800000020D6
:1034B0001C000000C8010008E43400081C000020C3
:1034C0003C080000E40100080100000010000000BA
:1034D0000000000000093D000000000000000000A6
:0434E00000000000E8
:040000050800018D61
:00000001FF
